:100000000C9446000C945D000C945D000C945D0013
:100010000C945D000C945D000C945D000C945D00EC
:100020000C945D000C945D000C945D000C945D00DC
:100030000C945D000C945D000C945D000C945D00CC
:100040000C945D000C945D000C945D000C945D00BC
:100050000C945D000C945D000C945D000C945D00AC
:100060000C945D000C945D000C945D000C945D009C
:100070000C945D000C945D000C945D000C945D008C
:100080000C945D000C945D000C945D0011241FBE67
:10009000CFEFD0E4DEBFCDBF11E0A0E0B1E0E6E2FB
:1000A000F2E000E00BBF02C007900D92AE30B10746
:1000B000D9F70E9488000C9411010C940000CF9392
:1000C000DF9300D01F92CDB7DEB789837B836A832D
:1000D00089818A3031F48A819B81BC018DE00E9444
:1000E0005F0080EC90E0FC018081882F90E08072BE
:1000F00099270097B1F386EC90E02981FC012083D9
:1001000080E090E00F900F900F90DF91CF910895D5
:10011000CF93DF9300D000D000D0CDB7DEB781E21F
:1001200090E0FC01108282E290E02FEFFC0120833E
:1001300087E290E02FEFFC01208388E290E0FC0151
:100140001082198280E290E0FC0180818F708A83A6
:1001500081E08B8380E290E0FC01808180718C8360
:1001600080E290E0FC01808180728D8380E290E0EB
:10017000FC01808180748E838C81882349F08D817D
:10018000882331F08E81882319F4898180688983DE
:100190008A818D3020F099818B81892B89838B8195
:1001A000880F8B838A818A3020F099818B81892BFB
:1001B00089838B81880F8B838A81873020F0998196
:1001C0008B81892B89838B81880F8B838A818530F2
:1001D00020F099818B81892B89838B81880F8B8378
:1001E0008A81833020F099818B81892B89838B814F
:1001F000880F8B838A81882321F099818B81892BB9
:1002000089838B81880F8B838A81843020F4998144
:100210008B81892B898388E290E02981FC012083EE
:0602200090CFF894FFCF1F
:0E02260000000002000000005F000000000069
:00000001FF
