:100000000C9446000C945D000C945D000C945D0013
:100010000C945D000C945D000C945D000C945D00EC
:100020000C945D000C945D000C945D000C945D00DC
:100030000C945D000C945D000C945D000C945D00CC
:100040000C945D000C945D000C945D000C945D00BC
:100050000C945D000C945D000C945D000C945D00AC
:100060000C945D000C945D000C945D000C945D009C
:100070000C945D000C945D000C945D000C945D008C
:100080000C945D000C945D000C945D0011241FBE67
:10009000CFEFD0E4DEBFCDBF11E0A0E0B1E0EEECE9
:1000A000F1E000E00BBF02C007900D92AE30B10747
:1000B000D9F70E9488000C94E5000C940000CF93BF
:1000C000DF9300D01F92CDB7DEB789837B836A832D
:1000D00089818A3031F48A819B81BC018DE00E9444
:1000E0005F0080EC90E0FC018081882F90E08072BE
:1000F00099270097B1F386EC90E02981FC012083D9
:1001000080E090E00F900F900F90DF91CF910895D5
:10011000CF93DF9300D000D01F92CDB7DEB781E23E
:1001200090E0FC01108282E290E02FEFFC0120833E
:1001300084E290E0FC01108285E290E02FEFFC0168
:10014000208387E290E02FEFFC01208388E290E09B
:10015000FC0110821A8281E08B8380E290E0FC0136
:1001600080818C8383E290E0FC0180818D83198201
:100170000EC09B818C818923882319F08A818F5F2F
:100180008A838B81880F8B8389818F5F89838981A3
:10019000883078F381E08B8319820EC09B818D813A
:1001A0008923882319F08A818F5F8A838B81880F46
:1001B0008B8389818F5F89838981883078F388E296
:0E01C00090E02A81FC012083C5CFF894FFCF88
:0E01CE0000000002000000005F0000000000C2
:00000001FF
