:100000000C9446000C945D000C945D000C945D0013
:100010000C945D000C945D000C945D000C945D00EC
:100020000C945D000C945D000C945D000C945D00DC
:100030000C945D000C945D000C945D000C945D00CC
:100040000C945D000C945D000C945D000C945D00BC
:100050000C945D000C945D000C945D000C945D00AC
:100060000C945D000C945D000C945D000C945D009C
:100070000C945D000C945D000C945D000C945D008C
:100080000C945D000C945D000C945D0011241FBE67
:10009000CFEFD0E4DEBFCDBF11E0A0E0B1E0E0EBF8
:1000A000F1E000E00BBF02C007900D92AE30B10747
:1000B000D9F70E9488000C94D6000C940000CF93CE
:1000C000DF9300D01F92CDB7DEB789837B836A832D
:1000D00089818A3031F48A819B81BC018DE00E9444
:1000E0005F0080EC90E0FC018081882F90E08072BE
:1000F00099270097B1F386EC90E02981FC012083D9
:1001000080E090E00F900F900F90DF91CF910895D5
:10011000CF93DF9300D000D0CDB7DEB78AE290E076
:10012000FC0110828BE290E02FEFFC01208384E23F
:1001300090E02EEFFC01208385E290E021E0FC01BD
:10014000208389E290E0FC0180818A8383E290E051
:10015000FC01808189838A81882F90E09C01220F95
:10016000331F8981882F90E081709927820F931F18
:100170009C838B838B819C818634910518F082E06F
:1001800089830EC08B819C818530910540F08B81E5
:100190009C818634910518F484E0898301C019821A
:1001A00085E290E02981FC012083CBCFF894FFCF3A
:0E01B00000000002000000005F0000000000E0
:00000001FF
